:100000000028002005DA00004937010055370100BB
:100010005D370100653701006D3701000000000009
:100020000000000000000000000000007537010023
:1000300081370100000000008D370100252C0100F0
:1000400079DA000079DA000079DA000079DA000064
:1000500079DA000079DA000079DA000079DA000054
:1000600079DA000079DA000079DA000079DA000044
:10007000B5B2000079DA000079DA0000292E01001B
:1000800079DA000079DA0000412C0100C1B20000E9
:1000900079DA000079DA000079DA000079DA000014
:1000A00079DA000079DA000079DA000079DA000004
:1000B00079DA000079DA000079DA000079DA0000F4
:1000C00079DA00004D2D010079DA000079DA0000BC
:1000D00079DA000079DA0000EDB20000FD2C0100B1
:1000E00079DA000079DA000079DA000079DA0000C4
:1000F00079DA000079DA000079DA000079DA0000B4
:1001000079DA00005FF8E0F1000010404000104094
:10011000800010400010034010E000E000E100E02B
:1001200000ED00E0008004400090074000A0074080
:100130000070034000D003400030034000A00640A0
:1001400000B0064000C006400020054000400240CC
:1001500000400640005006400080034000900340ED
:1001600000A003400000024000600640007006400E
:1001700000600740007007400000144000D00740B6
:10018000003007400040074000B0034000E0074057
:1001900000F00740002003400000084000C0074076
:1001A000000000000000000000000000000000004F
:1001B000000000000000000000000000000000003F
:1001C000000000000000000000000000000000002F
:1001D000000000000000000000000000000000001F
:106C0000404B4C009001B60314280403C80006FF53
:106C10000A0014001E005000E803320078EC000067
:106C20000000000000000000000000000000320A28
:106C30005CF90C00900123002003D0071404010A22
:106C40000F00DC0590010303E80318FC8200100E1E
:106C50009CFF060015FF15FF060015FF15FF060631
:106C6000E8030CFE0100D4FED4FE0200D4FED4FEE4
:106C7000E80301000F050F020202FFFFFFFF8888F3
:106C800068452211000000000000000014001E00F2
:106C900005001400A00F00008AF36A5954244438F8
:106CA0004538EC37E2374738483849384A38E647FC
:106CB0004B384C384D384E384F38EC37EF37F037CB
:106CC000FFFF000034000000010100001405B603BE
:106CD000F05598D0085298D048EE84E498D008CF68
:106CE00001021404C800983A320F1E1E240120012C
:106CF000015500000004070B0E1215191C20232457
:106D0000252627292A2B2C2D2E32363A3E42464A5A
:106D10004E5256595D6063676A6D7074777F8890D4
:106D200099A1A9B2BAC3CBCCCDCECFD1D2D3D4D531
:106D3000D6D8DADBDDDFE1E3E4E6E8EA00100020A4
:106D40009001900140000000010032000400022088
:106D500079D0000020001000004001001E000F321A
:106D60001E001E00D002C8002800280014052800BC
:106D70005802201400000000000000000000000085
:106D80000000000000000000000000000000000003
:106D900000000000000000000000000000000000F3
:106DA00000000000000000000000000000000000E3
:106DB00000000000000000000000000000000000D3
:1078000080B586B000AF786039600023FB754C4BC3
:107810003B614C4BFB6000237B81786800F05EFB92
:107820000346002B03D043F201037B8181E072B653
:1078300000F08EFA18E03B68013B3B603B680E2B82
:1078400005D80123FB7543F22003BB8211E03B699D
:107850001B6803F01003002B03D1FB681B68552B3A
:1078600002D1394B01221A7000F044FA0346002B72
:10787000E1D0FB7D002B5CD100F07AFA03467B81DE
:107880007B89A3F54053013B172B4FD801A252F837
:1078900023F000BFF5E8FF1F2DE9FF1F2DE9FF1FB3
:1078A0002DE9FF1F2DE9FF1F2DE9FF1F2DE9FF1F08
:1078B000FDE8FF1F2DE9FF1F2DE9FF1F2DE9FF1F29
:1078C0002DE9FF1F2DE9FF1F2DE9FF1F2DE9FF1FE8
:1078D00005E9FF1F0DE9FF1F15E9FF1F2DE9FF1F38
:1078E0001DE9FF1F2DE9FF1F2DE9FF1F2DE9FF1FD8
:1078F00025E9FF1F43F20103BB821AE043F20803AC
:10790000BB8216E043F21003BB8212E043F2110384
:10791000BB820EE043F21203BB820AE043F214037F
:10792000BB8206E043F21803BB8202E00023BB8265
:1079300000BF62B6BB8A18461837BD4680BD00BF7F
:1079400014A0064000A00640CE04002080B588B0F8
:1079500000AFF860B9607A603B604D4BBB614D4B46
:107960007B610023FB837A68B968F86800F044FA09
:107970000346002B03D043F20103FB8382E072B67F
:1079800000F0E6F918E03B68013B3B603B680E2BDA
:1079900005D801237B7743F22003FB8311E0BB6909
:1079A0001B6803F01003002B03D17B691B68552B68
:1079B00002D1394B01221A7000F09CF90346002BCA
:1079C000E1D07B7F002B5CD100F0D2F90346FB8332
:1079D000FB8BA3F54053013B172B4FD801A252F864
:1079E00023F000BF45EAFF1F7DEAFF1F7DEAFF1F6E
:1079F0007DEAFF1F7DEAFF1F7DEAFF1F7DEAFF1F73
:107A00004DEAFF1F7DEAFF1F7DEAFF1F7DEAFF1F92
:107A10007DEAFF1F7DEAFF1F7DEAFF1F7DEAFF1F52
:107A200055EAFF1F5DEAFF1F65EAFF1F7DEAFF1FA2
:107A30006DEAFF1F7DEAFF1F7DEAFF1F7DEAFF1F42
:107A400075EAFF1F43F20103FB831AE043F20803C8
:107A5000FB8316E043F21003FB8312E043F21103B1
:107A6000FB830EE043F21203FB830AE043F21403AC
:107A7000FB8306E043F21803FB8302E00023FB8351
:107A800000BF62B6FB8B18462037BD4680BD00BFE5
:107A900014A0064000A00640CE04002090B585B09A
:107AA00000AF786072B6786800F0D2F9C7E90201D9
:107AB00062B6D7E90234184621461437BD4690BD58
:107AC00080B487B000AF0346FB71FB79013BFB60DC
:107AD0000023FB82204B1B681B68002B06DBFB8A04
:107AE00043F4405343F01403FB822FE01A4B1B680E
:107AF0001B6A3B61FB79302B04D93B6943F000439F
:107B00003B6103E03B6923F000433B613B6903F0C9
:107B10008043002B0DD13B6923F4FE333B61FB68AE
:107B20009B023A6913433B610B4B1B683A691A622B
:107B30000CE03B6903F4FE32FB689B029A4205D0DD
:107B4000FB8A43F4405343F01803FB82FB8A184638
:107B50001C37BD4680BC70476401000080B485B00E
:107B600000AF7860134B1B689B6BFB60FB6823F4D2
:107B70007F43FB607B681B78DA037B685B785B0381
:107B80001A437B68DB78DB021A437B689B789B0295
:107B90001A437B681B791B021343FA681343FB608B
:107BA000044B1B68FA689A6300BF1437BD4680BC5B
:107BB000704700BF6401000080B483B000AF03468B
:107BC000FB71FB79002B08D00A4B1B68094A12682D
:107BD000126942F000421A6107E0064B1B68054A31
:107BE0001268126922F000421A6100BF0C37BD46CC
:107BF00080BC70476401000080B483B000AF0346CE
:107C0000FB71FB79002B08D00A4B1B68094A1268EC
:107C1000126A42F400121A6207E0064B1B68054A1A
:107C20001268126A22F400121A6200BF0C37BD46B5
:107C300080BC70476401000080B483B000AF03468D
:107C4000FB71FB79002B08D00A4B1B68094A1268AC
:107C5000126A42F480021A6207E0064B1B68054A6A
:107C60001268126A22F480021A6200BF0C37BD4605
:107C700080BC70476401000080B483B000AF03464D
:107C8000FB71FB79002B08D00A4B1B68094A12686C
:107C9000126A42F080421A6207E0064B1B68054AEE
:107CA0001268126A22F080421A6200BF0C37BD4689
:107CB00080BC70476401000080B485B000AF03460B
:107CC000FB710B4B1B681B6AFB60FB6823F4F01312
:107CD000FB60FB795B04FA681343FB60044B1B6891
:107CE000FA681A6200BF1437BD4680BC704700BFF7
:107CF0006401000080B483B000AF084B1B681B68B0
:107D0000002B02DA0123FB7101E00023FB71FB79F8
:107D100018460C37BD4680BC704700BF64010000A8
:107D200080B483B000AF094B1B681B6803F000638D
:107D3000002B02D00123FB7101E00023FB71FB79D2
:107D400018460C37BD4680BC704700BF6401000078
:107D500080B400AF054B1B68044A1268126842F0F9
:107D600000421A6000BFBD4680BC7047640100003D
:107D700080B483B000AF0023FB801E4B1B681B68E0
:107D800003F00053002B05D0FB8843F4405343F02D
:107D90000803FB80174B1B681B6803F08053002B04
:107DA00005D0FB8843F4405343F01003FB80114B94
:107DB0001B681B6803F04073B3F1807F05D1FB881B
:107DC00043F4405343F01103FB800A4B1B681B68CC
:107DD00003F04073B3F1407F05D1FB8843F4405377
:107DE00043F01203FB80FB8818460C37BD4680BC6D
:107DF000704700BF6401000080B487B000AFF86036
:107E0000B9607A600023FB82FB6803F00703002B54
:107E100003D043F20103FB8212E00C4B1B684FF0CE
:107E200040521A60094B1B68FA6842F040725A606F
:107E3000064B1B68BA689A60044B1B687A68DA6064
:107E4000FB8A18461C37BD4680BC704764010000A1
:107E500090B486B000AF78607A6812687A617A6808
:107E600052683A613A6911464FF000020C00002353
:107E70007A6911464FF0000243EA010344EA020422
:107E8000C7E90234D7E90234184621461837BD46FF
:107E900090BC704780B582B000AF7860054B1B681E
:107EA0007A6842F0A0625A60FFF752FF00BF0837BD
:107EB000BD4680BD6401000080B400AF064B1B6866
:107EC0004FF040521A60044B1B684FF080725A60AA
:107ED00000BFBD4680BC70476401000080B485B01F
:107EE00000AF78600023FB817B68C3F30903002B9C
:107EF00003D043F20103FB810AE0084B1B684FF0FB
:107F000040521A60054B1B687A6842F000725A6052
:107F1000FB8918461437BD4680BC704764010000D9
:107F200080B500AF064B1B684FF040521A60044BFF
:107F30001B684FF080625A60FFF70AFF00BF80BDE8
:107F40006401000080B485B000AF78600023FB813D
:107F50007B68C3F30903002B03D043F20103FB81C9
:107F60000CE072B6084B1B684FF040521A60064B8B
:107F70001B687A6842F0C0625A6062B6FB89184694
:107F80001437BD4680BC70476401000080B500AF67
:107F9000064B1B684FF040521A60044B1B684FF0B1
:107FA000E0625A60FFF7D4FE00BF80BD64010000AC
:107FB00080B500AF064B1B684FF040521A60044B6F
:107FC0001B68044A5A61FFF7C3FE00BF80BD00BFB3
:107FD00064010000AA55966980B483B000AF064BD7
:107FE0001B681B6803F40003DB0DFB71FB7918466B
:107FF0000C37BD4680BC70476401000080B483B07C
:1080000000AF064B1B689B6B03F47F431B0AFB719D
:10801000FB7918460C37BD4680BC704764010000F0
:1080200080B483B000AF064B1B689B6B03F07F43AB
:108030001B0EFB71FB7918460C37BD4680BC7047A0
:108040006401000080B483B000AF0346FB71064BAF
:108050001B68054A12681169FA790A431A6100BF60
:108060000C37BD4680BC70476401000080B483B00B
:1080700000AF78603960074B1B683A681A64054B9B
:108080001B687A6842F000429A6400BF0C37BD4614
:0880900080BC70476401000090
:1080980000000000000000000000000000000000D8
:1080A80000000000000000000000000000000000C8
:1080B80000000000000000000000000000000000B8
:1080C80000000000000000000000000000000000A8
:1080D8000000000000000000000000000000000098
:1080E8000000000000000000000000000000000088
:1080F8000000000000000000000000000000000078
:108108000000000000000000000000000000000067
:108118000000000000000000000000000000000057
:108128000000000000000000000000000000000047
:108138000000000000000000000000000000000037
:108148000000000000000000000000000000000027
:108158000000000000000000000000000000000017
:108168000000000000000000000000000000000007
:1081780000000000000000000000000000000000F7
:088188000000000000000000EF
:1081900010B5054C237833B9044B13B10448AFF341
:1081A00000800123237010BD700400200000000037
:1081B00000700000084B10B51BB108490848AFF328
:1081C00000800848036803B910BD074B002BFBD0A3
:1081D000BDE81040184700BF0000000074040020F4
:1081E00000700000700400200000000081F00041D9
:1081F00002E000BF83F0004330B54FEA41044FEA8C
:10820000430594EA050F08BF90EA020F1FBF54EA26
:10821000000C55EA020C7FEA645C7FEA655C00F0C2
:10822000E2804FEA5454D4EB5555B8BF6D420CDD93
:108230002C4480EA020281EA030382EA000083EA16
:10824000010180EA020281EA0303362D88BF30BDB6
:1082500011F0004F4FEA01314FF4801C4CEA11310C
:1082600002D0404261EB410113F0004F4FEA03336B
:108270004CEA133302D0524263EB430394EA050FF6
:1082800000F0A780A4F10104D5F1200E0DDB02FA65
:108290000EFC22FA05F2801841F1000103FA0EF2F9
:1082A000801843FA05F359410EE0A5F120050EF1BF
:1082B000200E012A03FA0EFC28BF4CF0020C43FAF0
:1082C00005F3C01851EBE37101F0004507D54FF0FD
:1082D000000EDCF1000C7EEB00006EEB0101B1F54D
:1082E000801F1BD3B1F5001F0CD349085FEA300093
:1082F0004FEA3C0C04F101044FEA445212F5800F9E
:1083000080F09A80BCF1004F08BF5FEA500C50F13A
:10831000000041EB045141EA050130BD5FEA4C0C1D
:10832000404141EB010111F4801FA4F10104E9D1A6
:1083300091F0000F04BF01460020B1FA81F308BF9D
:108340002033A3F10B03B3F120020CDA0C3208DD69
:1083500002F1140CC2F10C0201FA0CF021FA02F144
:108360000CE002F11402D8BFC2F1200C01FA02F1B4
:1083700020FA0CFCDCBF41EA0C019040E41AA2BFD9
:1083800001EB0451294330BD6FEA04041F3C1CDAA1
:108390000C340EDC04F11404C4F1200220FA04F0C1
:1083A00001FA02F340EA030021FA04F345EA03016B
:1083B00030BDC4F10C04C4F1200220FA02F001FA2D
:1083C00004F340EA0300294630BD21FA04F02946AF
:1083D00030BD94F0000F83F4801306BF81F4801148
:1083E0000134013D4EE77FEA645C18BF7FEA655CBB
:1083F00029D094EA050F08BF90EA020F05D054EA8D
:10840000000C04BF1946104630BD91EA030F1EBF91
:108410000021002030BD5FEA545C05D14000494195
:1084200028BF41F0004130BD14F580043CBF01F588
:10843000801130BD01F0004545F0FE4141F470016E
:108440004FF0000030BD7FEA645C1ABF1946104649
:108450007FEA655C1CBF0B46024650EA013406BF4A
:1084600052EA033591EA030F41F4002130BD00BF09
:1084700090F0000F04BF0021704730B54FF48064C6
:1084800004F132044FF000054FF0000150E700BF47
:1084900090F0000F04BF0021704730B54FF48064A6
:1084A00004F1320410F0004548BF40424FF0000193
:1084B0003EE700BF42004FEAE2014FEA31014FEAD6
:1084C00002701FBF12F07F4393F07F4F81F0605125
:1084D000704792F0000F14BF93F07F4F704730B594
:1084E0004FF4607401F0004521F0004120E700BF27
:1084F00050EA010208BF704730B54FF000050AE0AE
:1085000050EA010208BF704730B511F0004502D5AE
:10851000404261EB41014FF4806404F132045FEAB0
:10852000915C3FF4DCAE4FF003025FEADC0C18BF55
:1085300003325FEADC0C18BF033202EBDC02C2F14B
:10854000200300FA03FC20FA02F001FA03FE40EADD
:108550000E0021FA02F11444C1E600BF70B54FF0DD
:10856000FF0C4CF4E06C1CEA11541DBF1CEA1355BF
:1085700094EA0C0F95EA0C0F00F0DEF82C4481EA27
:10858000030621EA4C5123EA4C5350EA013518BF47
:1085900052EA033541F4801143F4801338D0A0FB34
:1085A00002CE4FF00005E1FB02E506F00042E0FBE1
:1085B00003E54FF00006E1FB03569CF0000F18BFE7
:1085C0004EF0010EA4F1FF04B6F5007F64F540748F
:1085D00004D25FEA4E0E6D4146EB060642EAC62122
:1085E00041EA55514FEAC52040EA5E504FEACE2E8F
:1085F000B4F1FD0C88BFBCF5E06F1ED8BEF1004F92
:1086000008BF5FEA500E50F1000041EB045170BD0D
:1086100006F0004646EA010140EA020081EA030151
:10862000B4EB5C04C2BFD4EB0C0541EA045170BD4D
:1086300041F480114FF0000E013C00F3AB8014F1C7
:10864000360FDEBF002001F0004170BDC4F1000410
:10865000203C35DA0C341BDC04F11404C4F1200591
:1086600000FA05F320FA04F001FA05F240EA0200EC
:1086700001F0004221F0004110EBD37021FA04F622
:1086800042EB06015EEA430E08BF20EAD37070BDDC
:10869000C4F10C04C4F1200500FA04F320FA05F03B
:1086A00001FA04F240EA020001F0004110EBD3703D
:1086B00041F100015EEA430E08BF20EAD37070BDAD
:1086C000C4F1200500FA05F24EEA020E20FA04F386
:1086D00001FA05F243EA020321FA04F001F0004135
:1086E00021FA04F220EA020000EBD3705EEA430EA6
:1086F00008BF20EAD37070BD94F0000F0FD101F0D5
:108700000046400041EB010111F4801F08BF013C0D
:10871000F7D041EA060195F0000F18BF704703F04B
:108720000046520043EB030313F4801F08BF013DD2
:10873000F7D043EA0603704794EA0C0F0CEA13558E
:1087400018BF95EA0C0F0CD050EA410618BF52EA48
:108750004306D1D181EA030101F000414FF000004E
:1087600070BD50EA410606BF1046194652EA43065C
:1087700019D094EA0C0F02D150EA013613D195EAD0
:108780000C0F05D152EA03361CBF104619460AD118
:1087900081EA030101F0004141F0FE4141F4700122
:1087A0004FF0000070BD41F0FE4141F4780170BD12
:1087B00070B54FF0FF0C4CF4E06C1CEA11541DBF77
:1087C0001CEA135594EA0C0F95EA0C0F00F0A7F879
:1087D000A4EB050481EA030E52EA03354FEA0131A6
:1087E00000F088804FEA03334FF0805545EA1313B9
:1087F00043EA12634FEA022245EA111545EA106581
:108800004FEA00260EF000419D4208BF964244F117
:10881000FD0404F5407402D25B084FEA3202B61A36
:1088200065EB03055B084FEA32024FF480104FF40A
:10883000002CB6EB020E75EB030E22BFB61A75467E
:1088400040EA0C005B084FEA3202B6EB020E75EB11
:10885000030E22BFB61A754640EA5C005B084FEA79
:108860003202B6EB020E75EB030E22BFB61A754646
:1088700040EA9C005B084FEA3202B6EB020E75EB51
:10888000030E22BFB61A754640EADC0055EA060E12
:1088900018D04FEA051545EA16754FEA06164FEA55
:1088A000C30343EA52734FEAC2025FEA1C1CC0D101
:1088B00011F4801F0BD141EA00014FF000004FF08E
:1088C000004CB6E711F4801F04BF01430020B4F14F
:1088D000FD0C88BFBCF5E06F3FF6AFAEB5EB030C07
:1088E00004BFB6EB020C5FEA500C50F1000041EB04
:1088F000045170BD0EF0004E4EEA113114EB5C04D1
:10890000C2BFD4EB0C0541EA045170BD41F48011A3
:108910004FF0000E013C90E645EA060E8DE60CEAAB
:10892000135594EA0C0F08BF95EA0C0F3FF43BAFC8
:1089300094EA0C0F0AD150EA01347FF434AF95EA7F
:108940000C0F7FF425AF104619462CE795EA0C0F63
:1089500006D152EA03353FF4FDAE1046194622E730
:1089600050EA410618BF52EA43067FF4C5AE50EA0A
:1089700041047FF40DAF52EA43057FF4EBAE12E7FA
:108980004A0011D212F5001211D20DD56FF478738E
:10899000B3EB62520ED44FEAC12343F0004343EAE3
:1089A000505323FA02F070474FF00000704750EA2E
:1089B000013002D14FF0FF3070474FF00000704798
:1089C00080F0004002E000BF81F0004142001FBF84
:1089D0005FEA410392EA030F7FEA226C7FEA236C8D
:1089E0006AD04FEA1262D2EB1363C1BFD218414082
:1089F00048404140B8BF5B42192B88BF704710F018
:108A0000004F40F4000020F07F4018BF404211F0BA
:108A1000004F41F4000121F07F4118BF494292EA22
:108A2000030F3FD0A2F1010241FA03FC10EB0C004E
:108A3000C3F1200301FA03F100F0004302D54942DB
:108A400060EB4000B0F5000F13D3B0F1807F06D388
:108A500040084FEA310102F10102FE2A51D2B1F180
:108A6000004F40EBC25008BF20F0010040EA030075
:108A70007047490040EB000010F4000FA2F1010222
:108A8000EDD1B0FA80FCACF1080CB2EB0C0200FAAC
:108A90000CF0AABF00EBC25052421843BCBFD040FA
:108AA0001843704792F0000F81F4000106BF80F474
:108AB00000000132013BB5E74FEA41037FEA226C37
:108AC00018BF7FEA236C21D092EA030F04D092F002
:108AD000000F08BF0846704790EA010F1CBF002036
:108AE000704712F07F4F04D1400028BF40F0004093
:108AF000704712F100723CBF00F50000704700F0B3
:108B0000004343F0FE4040F4000070477FEA2262D9
:108B100016BF08467FEA23630146420206BF5FEAAA
:108B2000412390EA010F40F4800070474FF00003AA
:108B300004E000BF10F0004348BF40425FEA000C71
:108B400008BF704743F0964301464FF000001CE019
:108B500050EA010208BF70474FF000030AE000BF6F
:108B600050EA010208BF704711F0004302D54042AD
:108B700061EB41015FEA010C02BF8446014600201F
:108B800043F0B64308BFA3F18053A3F50003BCFA3A
:108B90008CF2083AA3EBC25310DB01FA02FC6344E7
:108BA00000FA02FCC2F12002BCF1004F20FA02F2EE
:108BB00043EB020008BF20F00100704702F12002E1
:108BC00001FA02FCC2F1200250EA4C0021FA02F242
:108BD00043EB020008BF20EADC7070474FF0FF0C47
:108BE0001CEAD0521EBF1CEAD15392EA0C0F93EA42
:108BF0000C0F6FD01A4480EA010C400218BF5FEAE4
:108C000041211ED04FF0006343EA501043EA511156
:108C1000A0FB01310CF00040B1F5000F3EBF490050
:108C200041EAD3715B0040EA010062F17F02FD2A54
:108C30001DD8B3F1004F40EBC25008BF20F0010037
:108C4000704790F0000F0CF0004C08BF49024CEA4E
:108C5000502040EA51207F3AC2BFD2F1FF0340EAE0
:108C6000C250704740F400004FF00003013A5DDC51
:108C700012F1190FDCBF00F000407047C2F1000292
:108C8000410021FA02F1C2F1200200FA02FC5FEA7F
:108C9000310040F1000053EA4C0308BF20EADC70C9
:108CA000704792F0000F00F0004C02BF400010F43B
:108CB000000F013AF9D040EA0C0093F0000F01F0E8
:108CC000004C02BF490011F4000F013BF9D041EA0A
:108CD0000C018FE70CEAD15392EA0C0F18BF93EA0C
:108CE0000C0F0AD030F0004C18BF31F0004CD8D136
:108CF00080EA010000F00040704790F0000F17BFBD
:108D000090F0004F084691F0000F91F0004F14D002
:108D100092EA0C0F01D142020FD193EA0C0F03D15A
:108D20004B0218BF084608D180EA010000F000405D
:108D300040F0FE4040F40000704740F0FE4040F438
:108D4000400070474FF0FF0C1CEAD0521EBF1CEAD7
:108D5000D15392EA0C0F93EA0C0F69D0A2EB0302F5
:108D600080EA010C49024FEA402037D04FF080538F
:108D700043EA111143EA10130CF000408B4238BF54
:108D80005B0042F17D024FF4000C8B4224BF5B1A62
:108D900040EA0C00B3EB510F24BFA3EB510340EAB0
:108DA0005C00B3EB910F24BFA3EB910340EA9C005E
:108DB000B3EBD10F24BFA3EBD10340EADC001B01CE
:108DC00018BF5FEA1C1CE0D1FD2A3FF650AF8B4272
:108DD00040EBC25008BF20F0010070470CF0004C7F
:108DE0004CEA50207F32C2BFD2F1FF0340EAC250AA
:108DF000704740F400004FF00003013A37E792F06B
:108E0000000F00F0004C02BF400010F4000F013AC8
:108E1000F9D040EA0C0093F0000F01F0004C02BFC3
:108E2000490011F4000F013BF9D041EA0C0195E72C
:108E30000CEAD15392EA0C0F08D142027FF47DAFC5
:108E400093EA0C0F7FF470AF084676E793EA0C0FB5
:108E500004D14B023FF44CAF08466EE730F0004CB3
:108E600018BF31F0004CCAD130F000427FF45CAF43
:108E700031F000437FF43CAF5FE700BF4FF0FF3CB1
:108E800006E000BF4FF0010C02E000BF4FF0010C04
:108E90004DF804CD4FEA40024FEA41037FEA226CCD
:108EA00018BF7FEA236C11D001B052EA530C18BFEF
:108EB00090EA010F58BFB2EB030088BFC81738BF54
:108EC0006FEAE17018BF40F0010070477FEA226C42
:108ED00002D15FEA402C05D17FEA236CE4D15FEA3E
:108EE000412CE1D05DF8040B704700BF8446084672
:108EF0006146FFE70FB5FFF7C9FF002848BF10F133
:108F0000000F0FBD4DF808EDFFF7F4FF0CBF012077
:108F100000205DF808FB00BF4DF808EDFFF7EAFF01
:108F200034BF012000205DF808FB00BF4DF808EDBC
:108F3000FFF7E0FF94BF012000205DF808FB00BFB1
:108F40004DF808EDFFF7D2FF94BF012000205DF837
:108F500008FB00BF4DF808EDFFF7C8FF34BF012044
:108F600000205DF808FB00BF42000ED2B2F1FE4FB8
:108F70000BD34FF09E03B3EB126209D44FEA0023E8
:108F800043F0004323FA02F070474FF000007047AF
:108F900012F1610F01D1420202D14FF0FF30704750
:108FA0004FF00000704700BF844641EA000313F011
:108FB000030349D1403A23D30B6803604B684360F5
:108FC0008B688360CB68C3600B6903614B69436145
:108FD0008B698361CB69C3610B6A03624B6A43622D
:108FE0008B6A8362CB6AC3620B6B03634B6B436315
:108FF0008B6B8363CB6BC36340304031403ADBD231
:1090000030320BD30B6803604B6843608B6883601E
:10901000CB68C36010301031103AF3D20C3205D354
:1090200051F8043B40F8043B043AF9D2043208D02A
:10903000D2071CBF11F8013B00F8013B01D30B889C
:1090400003806046704700BF082A13D38B07B1D056
:1090500010F00303AED0C3F10403D21ADB071CBF28
:1090600011F8013B00F8013BA4D331F8023B20F892
:10907000023B9FE7043AD9D3013A11F8013B00F8CB
:10908000013BF9D20B7803704B7843708B78837077
:109090006046704700020000010000000000000070
:1090A000FDA1000002000000E8030000012C010007
:1090B00000000000000000000000000000000000B0
:1090C000000000000000000001020000010000009C
:1090D0000000000021A200000200000005000000C6
:1090E000B5DE0000000000000000000000000000ED
:1090F000000000000000000000000000020200006C
:10910000010000000000000045A200000200000075
:1091100002000000A528010000000000000000007F
:10912000000000000000000000000000000000003F
:1091300003020000010000000000000069A200001E
:10914000020000000A000000753401000000000069
:10915000000000000000000000000000000000000F
:1091600000000000040200000100000000000000F8
:10917000000000000200000001000000B51801001E
:1091800000000000000000000000000000000000DF
:1091900000000000000000000502000001000000C7
:1091A00000000000000000000200010002000000BA
:1091B000C1180100000000000000000000000000D5
:1091C0000000000000000000000000000602000097
:1091D000010000000000000000000000020000008C
:1091E0000A0000001119010000000000000000004A
:1091F000000000000000000000000000000000006F
:109200000702000001000000000000000000000054
:1092100002000200320000002D19010000000000D1
:10922000000000000000000000000000000000003E
:109230000000000008020000010000000000000023
:109240000000000002000400640000005519010045
:10925000000000000000000000000000000000000E
:1092600000000000000000000902000001000000F2
:10927000000000000000000002000600881300004B
:109280006119010000000000000000000000000063
:109290000000000000000000000000000D0D0600AE
:1092A0000008100000040000000000000008010891
:1092B000040200009C920000110810000000000051
:1092C0000000000011080100000000000000000084
:1092D0000600070009000A000C000D000F00100036
:1092E000080000000500080000000D00080917181C
:1092F000000102060708000010010132880000008A
:10930000C1E30000110132888800000099E40000E8
:109310002201018888000000F9E400002E01018884
:109320008800000039E600003E010132880000009C
:1093300055E700003101013288000000A1E700007C
:109340000AA0000091E900000BB000006DEA0000E7
:109350000DD0000055E90000D0018000006C000035
:10936000D1018000806C0000D2018000006D0000FF
:109370000CC02000006F0000006800000008000022
:10938000000001010505070701010B0B0D0D01018F
:10939000010801010105050707080101010101019B
:1093A0000101090101010101070701090101010191
:1093B0000101010A010101050507070A010A01016E
:1093C000010101010C01010105050707010C010163
:1093D0000C01010101010102010101010102010170
:1093E0000101010101010101010101010101010965
:1093F000010101010101010101020101010101015C
:10940000010201010101010101010201010101014A
:109410000101010102010101010101010301010139
:109420000103010101010101010101010103010128
:109430000101010301010101010101010101030118
:109440000101010101030101010101010101010308
:1094500001010101010101010301010101010104F7
:1094600001040101010401010101010101010101E6
:1094700001010101010101090101010101010101D4
:1094800001040104010101010104010101010101C3
:1094900001010401040101010101010104010101B3
:1094A000010101010601010601060101010101019D
:1094B000010101010106010106010106010101018D
:1094C000010101010101060101060101010601017D
:1094D0000101010101010106010106010101010172
:1094E0000601010101020102010101010102010263
:1094F0000202020101010301010301010101030351
:109500000303030301010104010401040101010437
:109510000104040404010101060101060101060120
:10952000060606060606010101010101010101010D
:10953000010101010101010101010000000001011F
:109540000505070701010B0B0D0D010101080108BD
:1095500001080808080801010101010101010901D0
:109560000909090909090109010101010101010AAA
:10957000010A010A0A0A0A0A010A0101010101019C
:109580000C010C0C0C0C0C0C010C01010C01010168
:1095900001010108010101010108010101010101AD
:1095A00001010101010301010101010101010101A9
:1095B0000101010101080108010101080101010186
:1095C0000101010101010108010108010801010176
:1095D000010101010101010901010101010109016B
:1095E000010101010101010101090101010101095B
:1095F000010101010101010101090109010101014B
:109600000901010101010101010101090101090132
:1096100001090101010101010101010A0101010129
:10962000010A010A01010101010101010103010116
:10963000010101010101010101010101010A010A08
:109640000101010A010A0101010101010101010AEF
:1096500001010A010A010A01010101010101010CD4
:109660000101010101010C01010C010101010101D4
:10967000010C01010101010C01010C0101010101B9
:10968000010C010C010101010C01010C010101019E
:109690000101010C01010C01010C01010C0101018E
:1096A00001020102010101010101010B0B0D0D017C
:1096B00001010301010301010101010101010D0D7E
:1096C000010101040104010401010101010B0B0D61
:1096D0000D010101060101060101060101010B0B4B
:1096E0000D0D010101010101010101010101010152
:1096F0000101010101010000000002010206010553
:109700000201060605050000000000000002010538
:10971000000403000B000D00010001000B000D0010
:10972000010001000E000E00010001000F000F00FB
:1097300001000100100010000100010012001200E1
:1097400001000100120012000100010012001400CB
:10975000010001002C01EE02C800F401C800F40170
:10976000C800F401C800F401C800F401C800F40105
:109770002C01EE0248000020F8B500BFF8BC08BC80
:109780009E467047F8B500BFF8BC08BC9E467047BF
:1097900080B485B000AFF860B9601346FB71FB6818
:1097A000002B14D0BB68002B11D0FB79002B0ED0FE
:1097B00007E0FB685A1CFA60BA68511CB96012785D
:1097C0001A70FB795A1EFA71002BF2D100E000BF2B
:0897D0001437BD4680BC704750
:1097D80080B485B000AF03460A46FB711346BB80D0
:1097E8000023FB73FB79092B02D8BB88002B01D11E
:1097F800F32322E00023FB7314E0F979FA7B114884
:1098080013465B0013449B00342202FB01F213440D
:10981800034404331B789BB2BA889A4206D0FB7B78
:109828000133FB73FB7B032BE7D900E000BFFB7B15
:10983800042B01D1F32300E0FB7B18461437BD4607
:0898480080BC70479490000001
:1098500080B483B000AF00237B604FF020237B6097
:109860007B685A221A7000BF0C37BD4680BC704717
:0C98700080B500AF08F07AF800BF80BDA2
:10987C00B0B582B000AF0023FB710023BB71744BF9
:10988C0000221A70734B00221A70734B00221A803C
:10989C000023FB7170E00023BB7167E0F979BB79A1
:1098AC006E481A4652001A4493001A460B465B0047
:1098BC000B441B011344034400221A70F979BB7941
:1098CC0066481A4652001A4493001A460B465B002F
:1098DC000B441B0113440344023300221A80F97910
:1098EC00BB795E481A4652001A4493001A460B463E
:1098FC005B000B441B0113440344043300221A8005
:10990C00F979BB7955481A4652001A4493001A4605
:10991C000B465B000B441B0113440344063300222B
:10992C001A80F979BB794D481A4652001A449300B3
:10993C001A460B465B000B441B01134403440833CB
:10994C00FF221A70F979BB7944481A4652001A441E
:10995C0093001A460B465B000B441B011344034453
:10996C000A3300221A80BB790133BB71BB79032BFC
:10997C0094D9FB790133FB71FB79092B8BD9384BCB
:10998C0000221A700023FB7119E0FB79354AFF2184
:10999C0002F82310FB79334A9B00134400225A70BF
:1099AC00FB79304A9B00134400229A70FB792D4AB4
:1099BC009B0013440022DA70FB790133FB71FB79B5
:1099CC00092BE2D90023FB7136E0FA7926491346BC
:1099DC009B0013449B000B4400221A80FA79224905
:1099EC0013469B0013449B000B44023300221A7055
:1099FC000023BB711AE0FA79B879FC79B9791B4D5F
:109A0C000B465B000B449B00342101FB04F10B441F
:109A1C002B440C331968144C13469B001344034419
:109A2C009B0023445960BB790133BB71BB79032B79
:109A3C00E1D9FB790133FB71FB79092BC5D9FFF710
:109A4C0001FF00F067F800BF0837BD46B0BD00BF8E
:109A5C00910400208C0400208E0400204406002079
:109A6C0090040020240800204C0800209490000052
:109A7C0080B400AF064B1B78012B05D9054B1B8816
:109A8C0001339AB2034B1A8000BFBD4680BC7047AD
:089A9C00910400208E0400205B
:109AA40080B483B000AF00237B604FF020237B6041
:109AB4007B681B785A2B00D0FEE700BF0C37BD46ED
:049AC40080BC7047AB
:109AC80080B582B000AF042003F064FD04F09EF975
:109AD80002460F4BA3FB02239B0CFB710D4AFB793B
:109AE8004FF47A7101FB03F353600A4B00229A602A
:109AF800084A084B1B6843F001031360054A054BED
:109B08001B6843F00203136000BF0837BD4680BDE1
:089B180083DE1B4310E000E0B6
:109B200090B583B000AF0023FB710023BB71294BBC
:109B300000221A70284B01221A700023FB713DE0AD
:109B40000023BB712CE0F979BA79244813465B00F5
:109B500013449B00342202FB01F2134403440833F4
:109B60001B88002B19D0FB791C4A342101FB03F31D
:109B700013441C78F979BA79184813465B001344EA
:109B80009B00342202FB01F21344034404331B788C
:109B90009BB21946204600F003FABB790133BB7132
:109BA000FB790E4A342101FB03F3134401331B7884
:109BB000BA799A42C7D3FB790133FB71FB79092B40
:109BC000BED9FFF781FF012009F0D2FB00BF0C379F
:109BD000BD4690BD910400208D04002094900000AB
:109BE00090B585B000AF0023FB730023BB73002347
:109BF000FB80414BBB60414B1B78012BFBD1FFF736
:109C000051FFBB681B88FB80FB88002B53D00023CF
:109C1000FB7345E0F988B87BFA7B394C13465B004F
:109C200013449B00342202FB00F213442344043308
:109C30001B781940B87BFA7B314C13465B00134408
:109C40009B00342202FB00F21344234404331B78AC
:109C5000994222D1FB7BBA689B0013445B68002BBE
:109C60001AD0FB7BBA689B0013445B689847B97BAA
:109C7000FA7B234813465B0013449B00342202FB0B
:109C800001F21344034404331B789AB2BB7B1146A0
:109C9000184600F085FA00E0FEE7FB7B0133FB731A
:109CA000BB7B174A342101FB03F3134401331B78B8
:109CB000FA7B9A42AED3BB681433BB60BB7B0133E3
:109CC000BB73BB7B092B05D90023BB730A4BBB605D
:109CD000FFF7CEFD0B4B1B78002B8CD0FFF7CEFE91
:109CE00072B6084B1B78013BDAB2064B1A7062B6AB
:109CF00000F00AF87FE700BF4C0800208D04002028
:089D0000949000009104002082
:109D0800B0B483B000AF0023FB710023BB719E4B3E
:109D18009E4A1A600023FB712CE10023BB711AE1F3
:109D2800F979BB799A481A4652001A4493001A46A0
:109D38000B465B000B441B01134403441B7803F0E0
:109D48000103002B00F00481F979BB7990481A4689
:109D580052001A4493001A460B465B000B441B0141
:109D68001344034406331B88002B40F0D080F97954
:109D7800BB7987481A4652001A4493001A460B4684
:109D88005B000B441B011344034402331B88002B64
:109D980000F0DE80F979BB797D481A4652001A44F2
:109DA80093001A460B465B000B441B011344034403
:109DB80008331B78092B00F2CB80F979B879744CF9
:109DC80002465200024493001A460B465B000B44BD
:109DD8001B011344234402331B88013B9DB26C4C86
:109DE80002465200024493001A460B465B000B449D
:109DF8001B011344234402332A461A80644C02464A
:109E08005200024493001A460B465B000B441B01A8
:109E18001344234402331B88002B40F09980F979BE
:109E2800BB795B481A4652001A4493001A460B46FF
:109E38005B000B441B011344034408331B781A4688
:109E480013469B0013449B00504A13444E4A136028
:109E580072B64D4B18684C4B1B681C88F979BB7956
:109E68004B4D1A4652001A4493001A460B465B00A3
:109E78000B441B0113442B440A331B8823439BB216
:109E8800038062B6F979BB7941481A4652001A44F0
:109E980093001A460B465B000B441B011344034412
:109EA8001B785BB2002B21DAF979B879FC79BB7998
:109EB800374D1A4652001A4493001A4623465B004F
:109EC80023441B0113442B4404331D88304C0246A1
:109ED8005200024493001A460B465B000B441B01D8
:109EE8001344234402332A461A8031E0F979BB79B6
:109EF80027481A4652001A4493001A460B465B003C
:109F08000B441B011344034400221A7020E0F97922
:109F1800B8791F4C02465200024493001A460B4679
:109F28005B000B441B011344234406331B88013B8D
:109F38009DB2174C02465200024493001A460B4643
:109F48005B000B441B011344234406332A461A8042
:109F5800BB790133BB71FB790E4A342101FB03F352
:109F6800134401331B78BA799A42FFF4D9AEFB79CE
:109F78000133FB71FB79092B7FF6CFAE00BF0C379D
:109F8800BD46B0BC704700BF940400204C080020B8
:089F9800440600209490000033
:109FA00080B584B000AF03460A46FB711346BB8000
:109FB0000023FB73BA88FB7911461846FFF70CFCA7
:109FC0000346FB73FB79092B05D8BB88002B02D015
:109FD000FB7B032B01D9F3235EE072B6F979FB7B9F
:109FE0001A4652001A4493001A460B465B000B4473
:109FF0001B0113442A4A1344BB60FB79294A3421CC
:10A0000001FB03F313441A78BB681A72F979FA7BDF
:10A01000244813465B0013449B00342202FB01F2E8
:10A020001344034404331B789AB2BB685A81F9790C
:10A03000FA7B1C4813465B0013449B00342202FB4E
:10A0400001F21344034408331A88BB689A80F979F3
:10A05000FA7B144813465B0013449B00342202FB36
:10A0600001F21344034408331A88BB685A80F97913
:10A07000FA7B0C4813465B0013449B00342202FB1E
:10A0800001F21344034406331A88BB68DA80BB68C4
:10A0900081221A7062B6002318461037BD4680BD73
:08A0A00044060020949000002A
:10A0A80080B586B000AF03463960FB710023FB75AD
:10A0B800FB79092B0AD8FA79344913469B001344D3
:10A0C8009B000B4402331B78002B02D14FF0FF3367
:10A0D80058E0FA7913469B0013449B002B4A13441B
:10A0E800FB602B4B3B610023FB7544E03B691B780D
:10A0F800FA799A4239D13B69013303221946386803
:10A10800FFF742FB72B60EE062B63B6904330422E5
:10A1180019463869FFF738FB72B6FB7D0133FB75CA
:10A128003B6904333B61FA7D1A4B1B78013B9A4229
:10A13800EADBFB689B78013BDAB2FB689A70FB6844
:10A148009B78002B06D1FB681B8823F001039AB289
:10A15800FB681A800F4B1B78013BDAB20D4B1A7063
:10A1680062B6FB689B785BB20CE0FB7D0133FB7544
:10A178003B6904333B61074B1B78FA7D9A42B5D3A0
:10A188004FF0FF3318461837BD4680BD4C080020F5
:08A198002408002090040020BF
:10A1A00080B483B000AF03460A46FB711346BB8000
:10A1B000FB79092B1BD872B6FA79F9790E480B4650
:10A1C0009B000B449B0003441B8819B2B7F9043071
:10A1D000DB431BB20B401BB298B2074913469B00EE
:10A1E00013449B000B4402461A8062B600E000BF95
:0CA1F0000C37BD4680BC70474C080020B6
:10A1FC0080B582B000AF3B1D00210A461A800A468A
:10A20C009A703B1D19460020FFF748FF00BF083726
:04A21C00BD4680BDFE
:10A2200080B582B000AF3B1D00210A461A800A4665
:10A230009A703B1D19460120FFF736FF00BF083713
:04A24000BD4680BDDA
:10A2440080B582B000AF3B1D00210A461A800A4641
:10A254009A703B1D19460220FFF724FF00BF083700
:04A26400BD4680BDB6
:10A2680080B582B000AF3B1D00210A461A800A461D
:10A278009A703B1D19460320FFF712FF00BF0837ED
:04A28800BD4680BD92
:10A28C0080B400AF274B00221A80264B00225A8044
:10A29C00244B05221A71234B0022DA80224B002218
:10A2AC001A80214B00225A801F4B00221A711E4B20
:10A2BC000022DA801D4B02221A701D4B00221A80DC
:10A2CC001C4B00221A801C4B00221A701B4B0222C2
:10A2DC001A701B4B00221A801A4B00221A801A4B40
:10A2EC0000221A70194B00221A70194B00221A7096
:10A2FC00184B00221A70184B00221A70174B0022B0
:10A30C001A70174B00221A70164B4FF47A721A807F
:10A31C00154B00221A70154B02221A7000BFBD4655
:10A32C0080BC70472000002030000020180900205D
:10A33C008A0A0020A20A00201A090020870A00209D
:10A34C00A60A0020840A0020860A0020880A002021
:10A35C0019090020D00900208C0A0020CD0400200F
:10A36C00A80A00201C090020C00400204000002086
:10A37C0080B582B000AF786000220449786800F0A4
:10A38C00CDFD00BF0837BD4680BD00BF20000020BA
:10A39C0080B582B000AF786001220449786800F083
:10A3AC0019FE00BF0837BD4680BD00BF300000203D
:10A3BC0080B586B000AF03463960FB800023BB82BA
:10A3CC00FB887B8201233B82934B1B78022B40F052
:10A3DC001E81FB88062B02D80123BB7522E0FB886B
:10A3EC00591F8E4B83FB0132CB17D21A13465B00DD
:10A3FC0013445B00CA1A002A0AD1FB88053B874A22
:10A40C0082FB0312DB17D31ADBB20133BB7509E0F5
:10A41C00FB88053B814A82FB0312DB17D31ADBB2A4
:10A42C000233BB757E4ABB7D1370BA7D7D4B1B8995
:10A43C0019467C4BDB88CB1A9A4200F3E880794BA7
:10A44C005A88794B1A80BB7D9AB2784B1A80724B22
:10A45C0001221A70764B00221A70FB88062B35D815
:10A46C00744B1B783B72FB88DBB27B723B681B78AE
:10A47C00BB720123FB750DE0FB7D0233FA7D39685D
:10A48C000A44127807F118010B4403F8102CFB7DD9
:10A49C000133FB75FB7D9BB2FA889A42ECD8FB88A2
:10A4AC00FB750AE0FB7D023307F118021344FF220F
:10A4BC0003F8102CFB7D0133FB75FB7D052BF1D9CB
:10A4CC0007F108031846FFF753FFA0E0594B1B7820
:10A4DC003B72FB881B0A9BB25BB203F00F035BB2AF
:10A4EC0043F010035BB2DBB27B72FB88DBB2BB7256
:10A4FC003B681B78FB720123FB750DE0FB7D03337E
:10A50C00FA7D39680A44127807F118010B4403F8F4
:10A51C00102CFB7D0133FB75FB7D042BEED9BB8A24
:10A52C000533BB827B8A053B7B8207F10803184607
:10A53C00FFF71EFFBB7D013BBB753E4B1B783B728F
:10A54C0062E03B8A5BB203F00F035BB243F0200383
:10A55C005BB2DBB27B723B8A01333B823B8A0F2BB3
:10A56C0001D900233B827B8A052B2BD80023FB755A
:10A57C0011E0FB7D9A1CBB8A591CB98219463B68B9
:10A58C000B44197807F1180313440A4603F8102CEE
:10A59C00FB7D0133FB75FB7D9BB27A8A9A42E8D82E
:10A5AC007B8AFB750AE0FB7D023307F1180213442A
:10A5BC00FF2203F8102CFB7D0133FB75FB7D052B73
:10A5CC00F1D919E00223FB7510E0FA7DBB8A591C06
:10A5DC00B98219463B680B44197807F118031344E8
:10A5EC000A4603F8102CFB7D0133FB75FB7D072B12
:10A5FC00EBD97B8A063B7B82BB7D013BBB7507F1AC
:10A60C0008031846FFF7B4FEBB7D002B99D100BFA1
:10A61C001837BD4680BD00BF870A0020ABAAAA2A06
:10A62C00CD04002020000020A60A0020840A00206F
:08A63C00400000201E00002078
:10A6440080B588B000AF786039600023BB83664B67
:10A6540001221A7010E0654B1B78032B07D0634B63
:10A664001B78062B03D0614B1B78052B04D15F4B61
:10A674001A785D4B1A70B4E05C4B1B78022BEAD15C
:10A6840007F10C031846FFF787FE7B7B1B097B76DB
:10A694007B7E012B26D0022B73D0002B00D09AE0B6
:10A6A4007B7B9BB203F00F037B837B687A8B1A80DE
:10A6B400BA7B3B681A700123FB770DE0FB7F3A6895
:10A6C4001344FA7F023207F120010A4412F8142CD1
:10A6D4001A70FB7F0133FB77FB7F9BB27A8B9A4224
:10A6E400ECD878E07B7B9BB203F00F039BB21B0298
:10A6F4009AB2BB7B9BB213447B837B687A8B1A80B0
:10A70400FA7B3B681A700123FB770DE0FB7F3A6804
:10A714001344FA7F033207F120010A4412F8142C7F
:10A724001A70FB7F0133FB77FB7F042BEED97B8B05
:10A73400053B7B83BB8B0533BB8322E007F10C0312
:10A744001846FFF729FE7B7B9BB203F00F03FB82C5
:10A754000223FB770FE0BB8B5A1CBA831A463B6873
:10A764001344FA7F07F120010A4412F8142C1A70DA
:10A77400FB7F0133FB77FB7F072BECD97B8B063BFD
:10A784007B837B8B062BD9D87B8B002B22D007F1C4
:10A794000C031846FFF700FE7B7B9BB203F00F030C
:10A7A400FB820023FB7710E0BB8B5A1CBA831A464A
:10A7B4003B681344FA7F023207F120010A4412F87D
:10A7C400142C1A70FB7F0133FB77FB7F9BB27A8BCF
:10A7D4009A42E9D800BF054B00221A70024B0222AC
:10A7E4001A702037BD4680BD180900201A090020C0
:10A7F40080B400AF024B1B781846BD4680BC70473E
:04A80400870A00209F
:10A8080080B400AF024B1B781846BD4680BC704729
:04A8180018090020FB
:10A81C0080B588B000AF0346FB710B46BB71134685
:10A82C007B716B4B1B783B7503237B757F23BB754F
:10A83C00FB79FB757B793B76FF237B76FF23BB761D
:10A84C00FF23FB76FB79B03B072B00F28B8001A238
:10A85C0052F823F03BA9000071A9000081A8000068
:10A86C005FA9000071A9000071A900001FA90000D8
:10A87C0003A90000BB79012B76D106237B75FB79EC
:10A88C004033DBB2BB757B79002B17D1514B1B8846
:10A89C00DBB2FB754F4B1B881B0A9BB2DBB23B76C2
:10A8AC004C4B5B88DBB27B764A4B5B881B0A9BB2BA
:10A8BC00DBB2BB76474B1B79FB7655E07B791F2BC4
:10A8CC0052D97B793F2B4FD807F10C027B7911467B
:10A8DC00184601F007FF0346BB77BB7F542B43D1CF
:10A8EC003B7BFB757B7B3B76BB7B7B76FB7BBB76C1
:10A8FC003B7CFB7638E0BB79012B37D101237B7590
:10A90C00FB794033DBB2BB75FF23FB75FF233B7632
:10A91C002CE0BB79012B2BD101237B75FB794033C8
:10A92C00DBB2BB75FF23FB75FF233B7620E02A4B84
:10A93C00DA68294B1B88DB001344DA79244B1A7034
:10A94C0001237B75F023BB75FF23FB75FF233B763F
:10A95C000FE001237B75F323BB75FF23FB75FF23EE
:10A96C003B7606E000BF04E000BF02E000BF00E061
:10A97C0000BF1A4B03221A71184B0122DA800023F4
:10A98C00FB7710E0154BDA68144B1B88DB001A447C
:10A99C00FB7FF97F07F12000014411F80C1CD15406
:10A9AC00FB7F0133FB77FB7F072BEBD90B4B5A88D3
:10A9BC000B4B1A800B4B01221A800B4B01221A7085
:10A9CC000A4B01221A7000BF2037BD4680BD00BF64
:10A9DC001E000020E4920000300000202000002027
:10A9EC00A60A0020840A0020870A0020CD0400203B
:10A9FC0080B584B000AF3B1D00220D49184600F015
:10AA0C00E9FA0123FB730CE0FB7BFA7B013A07F1BB
:10AA1C0010010A4412F80C1C064AD154FB7B01337A
:10AA2C00FB73FB7B082BEFD900BF1037BD4680BDF5
:08AA3C0020000020B40A0020F4
:10AA440080B584B000AF78607B685B781B09FB73CA
:10AA5400FB7B012B3CD0022B00F09E80002B00D00E
:10AA6400EBE07B685B789BB203F00F03BB81BB898F
:10AA7400062B29D8734B02221A70734B00221A70CA
:10AA8400724B01221A70724B00221A80704B002202
:10AA94005A806F4B0022DA806D4B00221A7101221A
:10AAA4006B496C4800F03EFA6B4B01221A706B4BF9
:10AAB40001221A706A4B1B78062B02D0684B0222C3
:10AAC4001A7000F079F9B8E0654B00221A70B4E00E
:10AAD4007B685B789BB203F00F039BB21B029AB2B4
:10AAE4007B689B789BB21344BB81BB89062B4ED9F0
:10AAF400BB89832B4BD85B4B4FF47A721A80524B31
:10AB040002221A70524B00221A80514B00225A80A2
:10AB14004F4B0022DA804E4B00221A714D4B01221A
:10AB24004B49184600F0FEF9BB89591F4E4B83FB75
:10AB34000132CB17D21A13465B0013445B00CA1AC6
:10AB4400002A0AD1BB89053B474A82FB0312DB1763
:10AB5400D31ADAB2414B1A700BE0BB89053B424A67
:10AB640082FB0312DB17D31ADBB20133DAB23B4B9D
:10AB74001A70394B01221A70344B00221A70384B68
:10AB84001B78062B07D0364B04221A7003E0344B93
:10AB940000221A7051E050E0324B4FF47A721A805E
:10ABA400294B02221A707B685B7803F00F03FB7257
:10ABB400294B1B78FA7A9A421FD1274B1B78013311
:10ABC400DAB2254B1A70244B1B780F2B02D9224B77
:10ABD40000221A70214B1B78013BDAB21F4B1A700A
:10ABE40001221B491B4800F09DF91D4B1B78062BC5
:10ABF4000CD01B4B04221A7008E0124B06221A7068
:10AC04001A4B06221A70104B00221A70134B1B7831
:10AC1400002B11D10B4B02221A700B4B00221A701D
:10AC24000A4B01221A700E4B1B78062B02D00C4BD8
:10AC340002221A7000F0C0F800BF00BF1037BD46F2
:10AC440080BD00BF1A090020A80A0020400000208F
:10AC540030000020B50A0020D00900208C0A002012
:10AC6400C00400201C090020ABAAAA2A180900204D
:10AC740080B582B000AF424B5B78FB71404BDB7810
:10AC8400BB713F4B9B781B097B71FB797F2B16D0E3
:10AC9400FB797D2B13D03B4B1B78FA799A4202D077
:10ACA400BB79B02B07D1384B1B78FA799A4206D07E
:10ACB400BB79B02B03D1354B00221A705CE0344BC6
:10ACC4001B78022B03D0324B1B78042B10D1FB7959
:10ACD4007D2B0DD12F4B1B78002B09D12E4B4FF41C
:10ACE4007A721A802D4B02221A700023FB7143E002
:10ACF400274B1B78022B29D1FB797D2B26D0254BA2
:10AD040000221A70264B00225A80254B00221A80FA
:10AD1400234B0022DA80224B05221A71214B002298
:10AD24005A80204B00221A801E4B0022DA801D4BD1
:10AD340000221A711C4B02221A701C4B00221A703A
:10AD44001B4B02221A70114B00221A70114B1B78F4
:10AD5400032B02D17B79022B0DD0FB797D2B03D001
:10AD64000B4B04221A7002E0094B06221A70114898
:10AD7400FFF766FE00E000BF0837BD4680BD00BF98
:10AD8400B40A00201E000020E0920000CD04002040
:10AD9400C0040020400000201C090020A80A002054
:10ADA4002000002030000020870A00201A0900201B
:08ADB40018090020B50A002077
:10ADBC0080B582B000AF524BDA68514B1B88DB0078
:10ADCC0013445B781B09BB714D4BDA684C4B1B88E9
:10ADDC00DB0013441B787B717B797D2B0ED101F04A
:10ADEC00E5F8484B00221A70474B02221A70474B69
:10ADFC0000221A70464B00221A707DE0BB79012BA1
:10AE0C0008D13F4BDA683E4B1B88DB001344DB78E0
:10AE1C00FB7107E03A4BDA68394B1B88DB001344B3
:10AE2C009B78FB71FB792F2B47D02F2B0FDC142B2E
:10AE3C004BD0142B04DC102B3BD0112B49D054E0FD
:10AE4C00222B2ED02E2B30D0192B3AD04DE0B22BFA
:10AE5C000FD0B22B06DC3E2B3FD0B02B18D0312BB1
:10AE6C003FD042E0B62B0AD0B72B05D0B32B15D070
:10AE7C003BE000F0E5FF3FE000F068FF3CE0254BD5
:10AE8C0001221A7000220121B620FFF7C1FC33E029
:10AE9C0000220121B020FFF7BBFC2DE001F040F8AF
:10AEAC002AE01D4B01221A7026E01B4B01225A701E
:10AEBC0022E0194B01229A701EE0174B0122DA7026
:10AECC001AE0154B01221A7116E0134B01225A712C
:10AEDC0012E0114B01229A710EE00F4B0122DA7134
:10AEEC000AE00D4B01221A7206E0FB7911220021B7
:10AEFC001846FFF78DFC00BF0837BD4680BD00BF6C
:10AF0C0030000020C0040020400000208C0A0020EB
:0CAF1C00D0090020B1040020C404002073
:10AF280080B487B000AFF860B9601346FB71BB68A6
:10AF3800DB683B61BB681B79032B47D0BB681B7977
:10AF4800052B03D0BB681B79002B0AD1FB79002B9A
:10AF580003D1BB6804221A7115E0BB6801221A717B
:10AF680011E0BB681B891A46BB685B8801339A42AB
:10AF780003D1BB6800225A8005E0BB685B880133B7
:10AF88009AB2BB685A800023FB750DE0BB685B88EA
:10AF9800DB003A691A44FB7DF97DF86801440978B9
:10AFA800D154FB7D0133FB75FB7D072BEED9BB68C4
:10AFB800DB8801339AB2BB68DA80BB68DA88BB6881
:10AFC8001B899A4202D3BB6803221A7100BF1C373F
:08AFD800BD4680BC704700BFBC
:10AFE00080B489B000AFF860B9601346FB71BB68EC
:10AFF000BB61BB69DB687B61BB691B79002B4ED0F1
:10B00000BB691B79052B4AD0BB691B887B82002357
:10B01000FB770CE0FB7FFA6813447A8AD2007969E7
:10B020001144FA7F8A5C1A70FB7F0133FB77FB7F48
:10B03000072BEFD9BB68DB88013B9AB2BB68DA808B
:10B04000BB68DB88002B0AD1FB79002B03D1BB68DE
:10B0500005221A710DE0BB6800221A7109E0FB7924
:10B06000002B03D1BB6804221A7102E0BB680122E5
:10B070001A71BB68DB88002B11D0BB681B881A468D
:10B08000BB681B89013B9A4203D1BB6800221A802E
:10B0900005E0BB681B8801339AB2BB681A8000BF09
:08B0A0002437BD4680BC704757
:10B0A80080B483B000AF0346FB71FB79082B01D94C
:10B0B800002302E0FB79034AD35C18460C37BD46EF
:08B0C80080BC7047C4040020A5
:10B0D00080B483B000AF0346FB71FB79082B03D823
:10B0E000FB79044A0021D15400BF0C37BD4680BC17
:08B0F000704700BFC4040020FA
:10B0F80080B500AF002000F09DF90023184680BD00
:10B1080080B500AF00F084FA0023184680BD00BF68
:10B1180080B582B000AF0023FB7100F01DFB034631
:0CB12800FB71FB7918460837BD4680BD5E
:0CB1340080B500AF00F0B4FA00BF80BD91
:0CB1400080B500AF00F0B4FA00BF80BD85
:10B14C0080B584B000AF0346FB710023FB73FB7921
:10B15C00082B02D90523FB7306E0064AFB79137012
:10B16C0000F0CCFA0023FB73FB7B18461037BD466E
:08B17C0080BD00BFB40A0020F1
:10B1840080B582B000AF0346FB71FB79184600F02E
:0CB1940099FA002318460837BD4680BD1C
:10B1A00080B485B000AF03460A46FB711346BB71FD
:10B1B000FB79FA795208D2B25340FA799208D2B2A6
:10B1C0005340FA791209D2B253409B015BB203F0AB
:10B1D00040035AB2FB795B08D9B2FB79DB08DBB2DA
:10B1E0004B40D9B2FB791B09DBB24B40D9B2FB799A
:10B1F0005B09DBB24B40DBB203F00103DB43DB0155
:10B200005BB213435BB2BB73BB79012B0DD1FB79EE
:10B2100003F0C002BB7B9A4202D0FF23FB7308E01D
:10B22000FB7903F03F03FB7303E0FA79BB7B134325
:10B23000FB73FB7B18461437BD4680BC704700BFCC
:10B2400080B485B000AF78600B46FB70FB783C2B78
:10B2500005D0FB787D2B02D0FB78BB8101E0002379
:10B26000BB817B681B78FB7311E07B6801337B60DB
:10B270007B681B789AB2BB891344BB81BB89FF2BC7
:10B2800002D9BB89FF3BBB81FB7B013BFB73FB7B93
:10B29000002BEAD1BB89DBB2DB43DBB218461437A3
:08B2A000BD4680BC704700BFF1
:0CB2A80080B500AF00F03CF800BF80BD96
:0CB2B40080B500AF00F046FB00BF80BD7D
:10B2C00080B500AF084B1B68184601F0CDFB034664
:10B2D000002B06D0044B1B68184601F0D7FB00F08A
:0CB2E000A7F800BF80BD00BF60010000A7
:10B2EC0080B500AF0B4B1B680721184602F090F895
:10B2FC000346002B0CD0074B1B6800220721184675
:10B30C0002F056F8034B1B680721184602F096F81A
:08B31C0000BF80BD1401000018
:10B3280090B585B000AF3C4B1B683B4A1268526928
:10B3380022F080025A6113233B7101237B7105239C
:10B34800BB710123FB713B1D184602F0A1F8324B7B
:10B358001B68314A1268526942F080025A612E4BCA
:10B368001B682D4A1268926A42F080729A622B4BCF
:10B378001B68184601F0EEFA0723FB600123BB6047
:10B38800264B1B680121184601F0A4FB234B1C68BF
:10B3980002F050FD03461846FDF766F81CA3D3E9F2
:10B3A8000023FDF7D7F802460B46104619464FF022
:10B3B80000021B4BFDF7F8F902460B464FF0000060
:10B3C8001849FDF7F1F902460B464FF00000154900
:10B3D800FDF7EAF902460B4610461946FDF7CCFA86
:10B3E80003469BB21946204601F062FB0B4B1B68D3
:10B3F80007F108021146184601F0BCFA074B1B6812
:10B408000121184601F004FB00BF1437BD4690BD6A
:10B41800FCA9F1D24D62503F2401000060010000F8
:08B428000000604000408F406D
:0CB4300080B500AF00F09EF900BF80BDA9
:10B43C0080B586B000AF0346FB710023FB75694AEB
:10B44C00FB791370684B694A1A60694B34221A8075
:10B45C0002F016FD0246674BA3FB0223DB0B3B619C
:10B46C00654B1B681A46654B9A4210D1644B1B689E
:10B47C00634A1268526922F480125A61604B1B684D
:10B48C005F4A1268526942F480125A612CE05A4B9E
:10B49C001B681A465B4B9A4210D1594B1B68584A91
:10B4AC001268526922F400125A61554B1B68544AB7
:10B4BC001268526942F400125A6115E04E4B1B6837
:10B4CC001A46514B9A420FD14D4B1B684C4A12688D
:10B4DC00526922F480025A61494B1B68484A12682F
:10B4EC00526942F480025A61434B1B68424A12680B
:10B4FC00D2F8002142F00202C3F8002103E03E4BD7
:10B50C001B681B68FB753C4B1B68DB6F03F001036E
:10B51C00002BF4D1384B1B68374A1268D2F8002143
:10B52C0022F00202C3F80021334B1A68D36843F0AF
:10B53C008003D36002F0A4FC03461A093B694FF464
:10B54C00964101FB03F3D31A1B012A4AA2FB0323E6
:10B55C00DB0AFB60284B1B683A69120AD2B25A60AC
:10B56C00254B1B683A69D2B21A60234B1B68FA68E8
:10B57C00C3F8C020204B1B681F4A1268D26822F007
:10B58C000402DA601C4B1B681B4A1268D26842F03A
:10B59C004302DA60184B1A68D3686FF3C713D36091
:10B5AC00154B1B6800229A60134B1B68124A1268D9
:10B5BC00526842F005025A600F4B1B685B690E4BD8
:10B5CC001B689B680C4B1B680B4A1268D2F8002155
:10B5DC0042F00202C3F8002100F08CF900BF1837CA
:10B5EC00BD4680BD04000020A4040020B40A002045
:10B5FC00A8040020B5814E1B0000002000A00640CE
:0CB60C002401000000B0064000C0064011
:10B6180080B500AF084BFF221A70084B1B68074A19
:10B628001268D2F8002122F00202C3F8002100F0CB
:10B6380007F800BF80BD00BF050000200000002003
:10B6480080B400AF134B1B78092B1FD0114B1B780C
:10B65800FF2B1BD00F4B1B780A2B17D000BF0D4BAD
:10B668001B78002BFBD10C4B1B680B4A1268D2F8D5
:10B67800002142F00102C3F80021074B1B68064A6B
:10B688001268526822F001025A6000E000BFBD460D
:0CB6980080BC704705000020000000206E
:0CB6A40080B500AF00F02AF900BF80BDA7
:10B6B00080B400AF034B0A221A7000BFBD4680BCA5
:08B6C000704700BF05000020E7
:10B6C80080B483B000AF0346FB71094B1B68FA795D
:10B6D8001A70084B00221A70054B1B68064A136043
:10B6E800064B06221A7000BF0C37BD4680BC704757
:10B6F800A40400209B0400209C04002005000020D6
:10B7080098B500AF0F4B1A680E4B1B681B780133B6
:10B71800D4180C4B1A680C4B1B7819461046FFF7C7
:10B728008BFD03462370094B01221A70084B1B68D6
:10B73800044A1268013212781A60064B07221A70FE
:10B7480000BF98BDA4040020060000209B04002030
:08B758000000002005000020A4
:10B7600080B400AF024B1B781846BD4680BC7047C2
:04B7700005000020B0
:10B7740080B500AF514B1B78022B18D1504B1B885E
:10B78400013B9AB24E4B1A804D4B1B88002B0ED1B5
:10B794004C4B03221A704C4B05221A704B4B05225A
:10B7A4001A70464B00221A70494B00221A70434B00
:10B7B4001B78012B15D1424B1B88013B9AB2404B9D
:10B7C4001A803F4B1B88002B0BD13E4B03221A706F
:10B7D400404B04221A70394B00221A703C4B002251
:10B7E4001A703D4B1B78092B66D801A252F823F03E
:10B7F4001DB80000BDB8000061B8000061B80000C9
:10B8040061B80000BDB800007DB8000061B8000058
:10B8140061B80000BBB80000304B1B88002B16D168
:10B824002F4B01221A70FF21082000F0E5FB2B4B5F
:10B8340042F210721A802B4B1B682A4A1268526813
:10B8440022F004025A60244B0A221A7034E0234B7B
:10B854001B88013B9AB2214B1A802DE0224B1B8896
:10B86400002B02D100F04AF826E01F4B1B88013B55
:10B874009AB21D4B1A801FE01C4B1B88002B13D15E
:10B884001B4B1B78002B0CD01A4B1B7843F0020384
:10B89400DAB2184B1A70184B1B781946072000F0BF
:10B8A400ABFB00F02BF807E0104B1B88013B9AB26E
:10B8B4000E4B1A8000E000BF00BF80BDA80A002024
:10B8C4001C090020400000201A090020180900204B
:10B8D400C0040020870A002005000020AE040020D8
:10B8E400A00A002000000020AA040020AC040020CC
:0CB8F4009B04002098040020A004002009
:10B9000080B400AF0C4B1B7823F00403DAB20A4B6F
:10B910001A700A4B42F210721A80094B00221A70F8
:10B92000084B1B68074A1268526842F004025A60CA
:10B9300000BFBD4680BC704798040020AE040020C4
:08B940000500002000000020BA
:10B9480080B582B000AF9D4B1B685B69FB719B4B58
:10B958001B685B6803F00803002B21D0FB7903F018
:10B968001003002B1CD1964B1B780A2B07D1FFF72D
:10B97800C3FF944B00221A70934B00221A708F4B0E
:10B988001B688E4A1268526842F004025A608B4B58
:10B998001B688A4A1268526822F008025A60C8E195
:10B9A800FB7903F00803002B1ED0844B1B681B682F
:10B9B800BB71864B1B7843F00A03DAB2834B1A70CB
:10B9C8007F4B1B78062B07D07D4B1B78072B03D0AA
:10B9D8007B4B1B78082B05D17D4B1B78194604201F
:10B9E80000F008FBFFF788FF744B1B689B687B71AE
:10B9F800FB7903F01003002B2CD0704B1B686F4AA7
:10BA08001268526842F008025A606C4B1B686B4A15
:10BA18001268526822F004025A60694B1B780A2B9C
:10BA280002D1FFF769FF84E1684B04221A70694B61
:10BA3800DA89694B1A80614B1B681B68604B0322CB
:10BA48001A705E4B1B685D4A1268526822F0040245
:10BA58005A606EE1594B1B681B68BB717B7903F018
:10BA68000403002B00F06581554B1B78033B072B23
:10BA780000F25C8101A252F823F000BFA5BA0000D1
:10BA8800B9BA000035BD000015BB000025BC000098
:10BA980035BD000035BD000001BD0000BB79552B48
:10BAA80003D1474B04221A7043E1FFF725FF40E119
:10BAB800BB7901211846FFF76FFB03461A46444B32
:10BAC8001A70464ABB791370414B1B78FF2B0FD075
:10BAD8003F4B1B781946002000F08CFA404B1B683E
:10BAE8001B78013B3B4A32F813203E4B1A8020E179
:10BAF800364B1B7843F04003DAB2344B1A70FF21FF
:10BB0800032000F077FAFFF7F7FE12E1364B1B68C7
:10BB18000133354A1360344B1B68BA791A70304BBD
:10BB28001B681A78314B1B789A4270D12C4B1A68D3
:10BB38002A4B1B7819461046FFF77EFB03461A4628
:10BB4800BB79934254D1214B1B7843F00103DAB2FD
:10BB58001E4B1A70194B1B68184A1268D2F800213C
:10BB680042F00102C3F80021144B1B68134A126803
:10BB7800526822F001025A60114B09221A70144BC4
:10BB88001B781946022000F035FA0C4B1B680B4A4B
:10BB98001268D2F8002122F00102C3F80021074BF5
:10BBA8001B68064A1268526842F001025A60044B48
:10BBB8001B780A2B2BD0FFF79FFE28E000000020FF
:10BBC80005000020A00A0020B004002098040020EE
:10BBD800A0040020D0920000AA0400200600002043
:10BBE800A4040020AC0400209C0400209B04002036
:10BBF800514B1B7843F01203DAB24F4B1A704F4B7C
:10BC08001B781946052000F0F5F9FFF775FE4C4B37
:10BC18001B780133DAB24A4B1A708AE0FB7903F0D9
:10BC28002003002B08D1454B1B781946062000F04D
:10BC3800E1F9FFF761FE7CE0424B1B68404A12784D
:10BC480013441B78BA799A4208D03C4B1B781946A2
:10BC5800062000F0CFF9FFF74FFE6AE0394B1B686A
:10BC68001A78374B1B789A420FD3354B1B78013320
:10BC7800DAB2334B1A70344B1B68324A12683049B7
:10BC880009780A4412781A6053E02B4B1B7843F06A
:10BC98000103DAB2284B1A702B4B1B682A4A126828
:10BCA800D2F8002142F00102C3F80021264B1B689C
:10BCB800254A1268526822F001025A60234B092271
:10BCC8001A701E4B1B781946012000F093F91E4B81
:10BCD8001B681D4A1268D2F8002122F00102C3F83D
:10BCE8000021194B1B68184A1268526842F0010279
:10BCF8005A60FFF701FE1CE0BB79F02B0BD0BB7933
:10BD0800E02B08D0BB79C02B05D0BB79802B02D0A3
:10BD1800BB79002B0CD1FFF7EFFD0B4B1B680A4AD0
:10BD28001268526842F004025A6001E000BF00E065
:10BD380000BF0837BD4680BD98040020A00400203D
:10BD48009B040020A404002000000020050000201F
:10BD580090B587B000AF0723BB753B46023307F1A8
:10BD68000C0219461046FEF769FC3B463B613B69ED
:10BD7800DB78FB730723BB75FB7B0433DBB2FB75F6
:10BD88001BE097F916303A69D35CFF2B09D097F975
:10BD98001730022B05DD10220021B720FEF73AFDEF
:10BDA8004BE097F91630DBB2013BDBB2BB7597F974
:10BDB8001730DBB2013BDBB2FB7597F91720FB7B31
:10BDC8009A42DEDC0423BB75FB7B0133DBB2FB75D7
:10BDD8002AE097F916303A69D35C002B02D0FF2B82
:10BDE80015D005E097F91730154AFF21D1540FE017
:10BDF80097F9174097F916303A69D35C012118462C
:10BE0800FFF7CAF903461A460D4B1A5500E000BF62
:10BE180097F91630DBB20133DBB2BB7597F91730EF
:10BE2800DBB20133DBB2FB7597F91630072BD0DD97
:10BE380000220121B720FEF7EDFC1C37BD4690BD5E
:04BE480018000020BE
:10BE4C0080B586B000AF3B46023307F10C021946B1
:10BE5C001046FEF7F1FB3B467B617B695B799BB23D
:10BE6C001B027B827B691B799AB27B8A13437B8290
:10BE7C007B69DB799BB21B023B827B699B799AB213
:10BE8C003B8A13433B82234B1B887A8A9A4204D009
:10BE9C007B8A47F6FF72934209D11E4B5B883A8A24
:10BEAC009A420BD03B8A4FF6FF72934206D01A4B44
:10BEBC0000221A70194B02221A7027E07B69DB787A
:10BECC00FB73FB7B002B02D0012B06D00BE0002276
:10BEDC000121B220FEF79CFC18E001220121B220C6
:10BEEC00FEF796FC12E0FB7B1F2B09D9FB7B3F2B4B
:10BEFC0006D8FB7B1A460121B220FEF789FC04E030
:10BF0C0012220021B220FEF783FC00BF1837BD4679
:10BF1C0080BD00BFE4920000CD0400204000002052
:10BF2C0080B582B000AF1F4BDA681E4B1B88DB005C
:10BF3C001344DB78FB711B4BDA681A4B1B88DB0054
:10BF4C0013441B79BB71174BDA68164B1B88DB004B
:10BF5C0013445B797B71134BDA68124B1B88DB0043
:10BF6C0013449B793B71FB79002B17D1BA793B7940
:10BF7C005340DAB27B791340BB71BB79002B08D1EB
:10BF8C00084BDA68074B1B88DB001344DA79064B45
:10BF9C001A7000220121B320FEF73AFC00BF0837CB
:0CBFAC00BD4680BD300000201E000020BB
:10BFB80080B584B000AF3A1D07F10E03114618464C
:0CBFC800FEF73CFB00BF1037BD4680BDFB
:10BFD40080B500AFFFF766F90023184680BD00BFA7
:10BFE40080B582B000AF0346FB71FFF783F80346C8
:08BFF40018460837BD4680BD68
:10BFFC0080B582B000AF03460A46FB711346BB7195
:10C00C00FB79002B04D1BB79184600F023F81DE016
:10C01C00FB79012B04D1BB79184600F00FF915E020
:10C02C00FB79022B04D1BB79184600F0A5F80DE082
:10C03C00FB79082B04D1BB79184600F0C1F905E057
:10C04C00BA79FB791146184600F052F900BF08374F
:04C05C00BD4680BDA0
:10C0600080B584B000AF0346FB713E4B00221A70CE
:10C070003D4B00221A70FB79184600F013FA034674
:10C080001A463A4B1A70394B1B78FF2B02D100230A
:10C09000FB734EE00123FB73344B1B781A461346A7
:10C0A0005B0013449B00324A1344BB60BB681B789F
:10C0B000012B16D1BB689B681B781A462D4B9B5CE5
:10C0C000002B0BD0BB689B681B7801332A4AD35CDA
:10C0D000184600F0F3FA0223FB732AE00023FB73F7
:10C0E00027E0BB689B78012B23D1BB681B78002B12
:10C0F00007D1FB790021184600F0F4F90223FB7305
:10C1000017E01E4B1B78002B02D10023FB7310E0BD
:10C110001B4B1B78032B0AD000F0BEF9174B1B7882
:10C12000013BDAB2154B1A700223FB7301E00023C6
:10C13000FB73FB7B012B02D0022B06D00BE0BB680C
:10C140005B781846FFF71EF808E0BB685B78184676
:10C15000FEF7FCFF02E0FEF7EDFF00BF00BF103767
:10C16000BD4680BDA00A0020B004002015090020B3
:10C17000A0920000BC04002018000020CD04002084
:04C18000400000205B
:10C1840080B584B000AF0346FB712A4B1B78194677
:10C19400294A0B465B000B449B00134404331B7871
:10C1A400FB73244B1B781946234A0B465B000B4454
:10C1B4009B00134405331B787B73204B01221A70B8
:10C1C4001C4B1B7819461C4A0B465B000B449B0016
:10C1D40013441B78002B05D1FB790121184600F08C
:10C1E4007FF90DE0134B1B781946134A0B465B008D
:10C1F4000B449B0013441B78112B01D100F032F93E
:10C204000023BB7309E0FB7B5A1CFA731A460C4BE0
:10C21400FF219954BB7B0133BB73BA7B7B7B9A426E
:10C22400F1D3FB79184600F0DBF900BF1037BD46A7
:10C2340080BD00BF15090020A0920000890A0020DB
:04C24400B40400201E
:10C2480080B582B000AF0346FB71204B01221A7003
:10C258001F4B1B78012B05D11E4B00221A701C4B5B
:10C2680000221A701C4B1B78184600F0BBF800F02F
:10C27800F3F9FB79184600F0B1F9FB793D2B20D191
:10C28800164B1B88013B9AB2144B1A80134B1B8820
:10C29800002B0CD1124B00221A70124B02221A707A
:10C2A800114B02221A70114B00221A7009E0104B30
:10C2B8004FF47A721A800A4B01221A700B4B022231
:10C2C8001A7000BF0837BD4680BD00BF890A00202C
:10C2D80014090020B00A002015090020840A002053
:10C2E800A80A0020870A002040000020C00400207F
:04C2F8001C090020FD
:10C2FC0080B582B000AF03460A46FB711346BB7192
:10C30C00BB79184600F0C8F803461A46214B1A7040
:10C31C00FB79033B042B31D81E4B1B7819461E4A64
:10C32C000B465B000B449B0013441B78012B02D083
:10C33C001A4B01221A70BB793C2B0FD1184B0322DC
:10C34C001A70184B03221A70174B02221A71174BD2
:10C35C0000221A70164B00221A700BE0BB793D2B91
:10C36C0008D1144B03221A70134B06221A71104B6E
:10C37C0000221A70114B03221A7000E000BF00F06B
:10C38C0069F9BB79184600F027F900BF0837BD469C
:10C39C0080BD00BF15090020A0920000B00A00204B
:10C3AC001A0900201809002030000020CD040020BC
:10C3BC00C0040020870A002020000020400000203C
:10C3CC0080B582B000AF0346FB71FB79184600F0D4
:10C3DC0003F9FEF7AFFE00BF0837BD4680BD00BFB6
:10C3EC0080B485B000AF0346FB71FA791949134646
:10C3FC005B0013449B000B4404331B78FB73FA79EA
:10C40C00144913465B0013449B000B4405331B7803
:10C41C007B73FA790F4913465B0013449B000B4462
:10C42C001B78112B10D00023BB7309E0FB7B5A1C2B
:10C43C00FA731A46084BFF219954BB7B0133BB732B
:10C44C00BA7B7B7B9A42F1D300BF1437BD4680BCCC
:0CC45C00704700BFA0920000B404002054
:10C4680080B500AF074B5B78002B08D1064B012243
:10C478001A70064B01221A70FEF75EFE01E0FEF705
:10C48800F5FB80BDB40A0020A00A0020B0040020FB
:0CC4980080B500AFFEF7AEFA00BF80BD1B
:10C4A40080B485B000AF0346FB710423FB730CE03A
:10C4B400FB7B0A4AD35CFA799A4203D1FB7B013BAA
:10C4C400DBB206E0FB7B013BFB73FB7B002BEFD174
:10C4D400FF2318461437BD4680BC7047180000205F
:10C4E40080B584B000AF03460A46FB711346BB71A6
:10C4F400354B1B781946354A0B465B000B449B00B1
:10C50400134401331A78324B1A702F4B1B78194697
:10C514002E4A0B465B000B449B00134403331B78E9
:10C52400FB73FB791846FFF7BBFF03461A46264BFD
:10C534001A70BB79002B2DD1234B1B781946234A43
:10C544000B465B000B449B00134408331B68BB6021
:10C55400BB68002B08D0BB681A781E4B1B789A4224
:10C5640002D11D4B01221A700123BB730BE0BB7B6C
:10C57400FA7B1A49895C164AD154BB7B0133BB73DD
:10C58400FB7B0133FB73BA7B114B1B7801339A425B
:10C59400EDDB14E00123BB730BE0FB7BBA7B0C499E
:10C5A400895C0E4AD154BB7B0133BB73FB7B0133E3
:10C5B400FB73BA7B064B1B7801339A42EDDB00BF59
:10C5C4001037BD4680BD00BF15090020A0920000B1
:10C5D400B40A0020EA920000140900200800002098
:10C5E40080B483B000AF0346FB71174B1B781AB2BB
:10C5F400164B1B785B001BB213431AB2124B19780B
:10C60400124B1B780B43DBB29B001BB213431AB2D1
:10C614000F4B1B78DB001BB213431AB20D4B1B7874
:10C624009B011BB213431AB2FB791B021BB21343C7
:10C634001BB29BB223F0B0039AB2074B1A8000BF1F
:10C644000C37BD4680BC7047B00A0020890A002020
:0CC65400A00A0020B1040020A40A00206D
:10C6600080B400AF114B1B781946104B1B781A464B
:10C670000F4B9B5C5AB20F4B1B781846012383402B
:10C680005BB2DB435BB213405AB20B4B1B781846CC
:10C69000084B1B7800FA03F35BB213435BB2DAB2C8
:10C6A000034B5A5400BFBD4680BC70479D920000AA
:0CC6B000080000209E920000B00A00204C
:10C6BC0080B582B000AF0346FB71FB7900211846B0
:10C6CC00FFF70AFFFB7900211846FEF763FD0346CE
:10C6DC001A46034B5A7000BF0837BD4680BD00BFD9
:04C6EC00B40A00206C
:10C6F00080B485B000AF03463960FB715223FB73F1
:10C70000FB79202B1ED1FB790133DAB23B681A701A
:10C710003B680133FA790232D2B21A703B680233B5
:10C72000FA790332D2B21A703B680333FA790432D1
:10C73000D2B21A703B680433FA790532D2B21A7059
:10C740005423FB73FB7B18461437BD4680BC7047EF
:10C7500080B483B000AF786039607B681A681C4B86
:10C7600013407A6813607B681A683B681B6803F0A3
:10C7700003013B685B681B0303F4405319433B68A8
:10C780009B689B039BB219433B68DB681B0603F065
:10C7900040730B43134343F400127B681A603B68F9
:10C7A0005B7C012B05D17B681B6843F400627B68CE
:10C7B0001A603B681B7C012B05D17B681B6843F426
:10C7C00080627B681A6000BF0C37BD4680BC704732
:04C7D000FC03FFFC6B
:10C7D40080B483B000AF786039607B681B6823F055
:10C7E4003C027B681A607B681A683B681B68DB0044
:10C7F40003F038031A437B681A603B681B79012BEA
:10C8040005D17B681B6843F004027B681A6000BF93
:08C814000C37BD4680BC7047E3
:10C81C0080B483B000AF78600B46FB70FB78002BC4
:10C82C0006D07B685B6943F001027B685A6105E0C6
:10C83C007B685B6923F001027B685A6100BF0C378F
:08C84C00BD4680BC704700BF2F
:10C8540080B483B000AF78600B46FB70FB78002B8C
:10C8640006D17B681B6823F480727B681A6005E03C
:10C874007B681B6843F480727B681A6000BF0C37C6
:08C88400BD4680BC704700BFF7
:10C88C0080B483B000AF78600B46FB70FB78002B54
:10C89C0006D17B681B6823F040027B681A6005E0B8
:10C8AC007B681B6843F040027B681A6000BF0C3742
:08C8BC00BD4680BC704700BFBF
:10C8C40080B483B000AF78600B46FB70FB7803F054
:10C8D4001F027B689A6000BF0C37BD4680BC70475E
:10C8E40080B483B000AF78600B46FB70FB78002BFC
:10C8F40006D07B681B6843F080027B681A6005E001
:10C904007B681B6823F080027B681A6000BF0C37C9
:08C91400BD4680BC704700BF66
:10C91C0080B483B000AF78607B68DB689BB2C3F3F4
:10C92C000B039BB218460C37BD4680BC704700BF4A
:10C93C0080B483B000AF78607B685B689BB203F017
:10C94C000F039BB218460C37BD4680BC704700BF26
:10C95C0080B483B000AF78607B685B6D43F00402F9
:10C96C007B685A6500BF0C37BD4680BC704700BF62
:10C97C0080B483B000AF786039607B681B6823F0AB
:10C98C001F027B681A607B681A683B681B68D900B9
:10C99C003B685B680B431A437B681A6000BF0C371B
:08C9AC00BD4680BC704700BFCE
:10C9B40080B483B000AF78600B46FB701346BB7045
:10C9C4007B6800221A607B684FF6FF729A60BB781E
:10C9D400012B07D1FB787A680133DB00134444222E
:10C9E4005A6011E0BB78022B07D1FB787A680133D7
:10C9F400DB00134448225A6006E0FB787A6801336E
:10CA0400DB0013444C225A6000BF0C37BD4680BC87
:04CA1400704700BFA8
:10CA180080B483B000AF78600B46FB70FB78002BC6
:10CA280012D07B681B6803F08003002B05D07B685D
:10CA38001B6823F080027B681A607B681B6843F0E0
:10CA480040027B681A6005E07B681B6823F040029F
:10CA58007B681A6000BF0C37BD4680BC704700BFBA
:10CA680080B483B000AF78607B681B6803F08003F4
:10CA7800002B14BF01230023DBB218460C37BD4638
:04CA880080BC7047B7
:10CA8C0080B483B000AF78607B681B6803F08003D0
:10CA9C00002B05D07B681B6823F080027B681A6032
:0CCAAC0000BF0C37BD4680BC704700BFC7
:10CAB80080B483B000AF78600B467B807B6800222F
:10CAC8005A607A887B689A6000BF0C37BD4680BC84
:04CAD800704700BFE4
:10CADC0080B483B000AF78600B467B807A887B682B
:0CCAEC00DA6400BF0C37BD4680BC704708
:10CAF80080B483B000AF78600B46FB701346BB7000
:10CB0800BB78002B0ED0F878FB787A680133DB000D
:10CB180013445B6843F040027968431CDB000B4414
:10CB28005A600DE0F878FB787A680133DB0013442B
:10CB38005B6823F040027968431CDB000B445A60B1
:0CCB480000BF0C37BD4680BC704700BF2A
:10CB540080B483B000AF78600B46FB70FB787A68D2
:10CB64000133DB0013445B6803F08003002B14BF24
:10CB740001230023DBB218460C37BD4680BC704746
:10CB840080B483B000AF78600B46FB70FB787A68A2
:10CB94000133DB0013445B68F878FB787A6801336F
:10CBA400DB0013445B6823F080027968431CDB00DC
:10CBB4000B445A6000BF0C37BD4680BC704700BFB1
:10CBC40080B483B000AF78600B46FB70FB787A6862
:10CBD4000133DB0013449B689BB218460C37BD46F7
:04CBE40080BC70475A
:10CBE80080B483B000AF03460A46FB711346BB719D
:10CBF800FB791F2B4DD8BB79002B18D0012B2FD1D7
:10CC08007B4B1B687A4A12685169FA79012000FA4D
:10CC180002F20A435A61764B1B68754A1268916999
:10CC2800FA79012000FA02F20A439A61DBE0704BBC
:10CC38001B686F4A12685169FA79012000FA02F2FA
:10CC4800D2430A405A616A4B1B68694A1268916963
:10CC5800FA79012000FA02F2D2430A409A61C2E04E
:10CC6800634B1B68624A12685169FA79012000FA1D
:10CC780002F2D2430A405A615D4B1B685C4A126853
:10CC88009169FA79012000FA02F20A439A6100BF19
:10CC9800A9E0FB793F2B53D8BB79002B1AD0012B85
:10CCA80033D1544B1B68534A12685169FA79203AB8
:10CCB800012000FA02F20A435A614E4B1B684D4AA2
:10CCC80012689169FA79203A012000FA02F20A43BF
:10CCD8009A6188E0474B1B68464A12685169FA799D
:10CCE800203A012000FA02F2D2430A405A61414B2D
:10CCF8001B68404A12689169FA79203A012000FAC3
:10CD080002F2D2430A409A616DE03A4B1B68394AF5
:10CD180012685169FA79203A012000FA02F2D243E6
:10CD28000A405A61334B1B68324A12689169FA7992
:10CD3800203A012000FA02F20A439A6100BF52E049
:10CD4800BB79002B1AD0012B33D12B4B1B682A4AF5
:10CD580012685169FA79403A012000FA02F20A434E
:10CD68005A61254B1B68244A12689169FA79403A3E
:10CD7800012000FA02F20A439A6134E01E4B1B6854
:10CD88001D4A12685169FA79403A012000FA02F204
:10CD9800D2430A405A61184B1B68174A12689169B6
:10CDA800FA79403A012000FA02F2D2430A409A6125
:10CDB80019E0114B1B68104A12685169FA79403A18
:10CDC800012000FA02F2D2430A405A610A4B1B685A
:10CDD800094A12689169FA79403A012000FA02F288
:10CDE8000A439A6100BF00BF0C37BD4680BC70473C
:0CCDF800080100000C0100001001000008
:10CE040080B483B000AF0346FB71FB791F2B0BD8B2
:10CE1400164B1B68154A12685168FA79012000FA0A
:10CE240002F20A435A601BE0FB793F2B0CD8104BEB
:10CE34001B680F4A12685168FA79203A012000FAF7
:10CE440002F20A435A600BE00A4B1B68094A126853
:10CE54005168FA79403A012000FA02F20A435A6012
:10CE640000BF0C37BD4680BC704700BF08010000FE
:08CE74000C0100001001000098
:10CE7C0080B483B000AF0346FB71FB791F2B0BD83A
:10CE8C00164B1B68154A12689168FA79012000FA52
:10CE9C0002F20A439A601BE0FB793F2B0CD8104B33
